{
  "contractName": "ResContract",
  "abi": [
    {
      "constant": true,
      "inputs": [],
      "name": "availabilityCount",
      "outputs": [
        {
          "name": "",
          "type": "uint256"
        }
      ],
      "payable": false,
      "stateMutability": "view",
      "type": "function"
    },
    {
      "constant": true,
      "inputs": [
        {
          "name": "",
          "type": "uint256"
        }
      ],
      "name": "availabilities",
      "outputs": [
        {
          "name": "_provider",
          "type": "address"
        },
        {
          "name": "_booker",
          "type": "address"
        },
        {
          "name": "_resourceId",
          "type": "uint256"
        },
        {
          "name": "_type",
          "type": "uint256"
        },
        {
          "name": "_minDeposit",
          "type": "uint256"
        },
        {
          "name": "_commission",
          "type": "uint256"
        },
        {
          "name": "_freeCancelDateTs",
          "type": "uint256"
        },
        {
          "name": "_startDateTs",
          "type": "uint256"
        },
        {
          "name": "_endDateTs",
          "type": "uint256"
        },
        {
          "name": "_bookingStatus",
          "type": "uint8"
        },
        {
          "name": "_metaDataLink",
          "type": "bytes32"
        }
      ],
      "payable": false,
      "stateMutability": "view",
      "type": "function"
    },
    {
      "constant": false,
      "inputs": [
        {
          "name": "_type",
          "type": "uint256"
        },
        {
          "name": "_minDeposit",
          "type": "uint256"
        },
        {
          "name": "_commission",
          "type": "uint256"
        },
        {
          "name": "_freeCancelDateTs",
          "type": "uint256"
        },
        {
          "name": "_startDateTs",
          "type": "uint256"
        },
        {
          "name": "_endDateTs",
          "type": "uint256"
        },
        {
          "name": "_bookingStatus",
          "type": "uint8"
        },
        {
          "name": "_metaDataLink",
          "type": "bytes32"
        }
      ],
      "name": "publishAvailability",
      "outputs": [
        {
          "name": "status",
          "type": "uint8"
        }
      ],
      "payable": false,
      "stateMutability": "nonpayable",
      "type": "function"
    },
    {
      "constant": true,
      "inputs": [],
      "name": "listAvailabilitiesOverview",
      "outputs": [
        {
          "name": "",
          "type": "uint256[]"
        },
        {
          "name": "",
          "type": "address[]"
        },
        {
          "name": "",
          "type": "address[]"
        },
        {
          "name": "",
          "type": "uint256[]"
        },
        {
          "name": "",
          "type": "uint256[]"
        },
        {
          "name": "",
          "type": "uint8[]"
        }
      ],
      "payable": false,
      "stateMutability": "view",
      "type": "function"
    },
    {
      "constant": true,
      "inputs": [
        {
          "name": "availabilityNumber",
          "type": "uint256"
        }
      ],
      "name": "listAvailabilityDetails",
      "outputs": [
        {
          "name": "",
          "type": "uint256"
        },
        {
          "name": "",
          "type": "uint256"
        },
        {
          "name": "",
          "type": "uint256"
        },
        {
          "name": "",
          "type": "uint256"
        },
        {
          "name": "",
          "type": "uint8"
        },
        {
          "name": "",
          "type": "bytes32"
        }
      ],
      "payable": false,
      "stateMutability": "view",
      "type": "function"
    },
    {
      "constant": false,
      "inputs": [
        {
          "name": "availabilityNumber",
          "type": "uint256"
        }
      ],
      "name": "requestAvailability",
      "outputs": [
        {
          "name": "",
          "type": "uint8"
        }
      ],
      "payable": false,
      "stateMutability": "nonpayable",
      "type": "function"
    },
    {
      "constant": false,
      "inputs": [
        {
          "name": "availabilityNumber",
          "type": "uint256"
        }
      ],
      "name": "rejectAvailability",
      "outputs": [
        {
          "name": "",
          "type": "uint8"
        }
      ],
      "payable": false,
      "stateMutability": "nonpayable",
      "type": "function"
    },
    {
      "constant": false,
      "inputs": [
        {
          "name": "availabilityNumber",
          "type": "uint256"
        }
      ],
      "name": "confirmAvailability",
      "outputs": [
        {
          "name": "",
          "type": "uint8"
        }
      ],
      "payable": false,
      "stateMutability": "nonpayable",
      "type": "function"
    },
    {
      "constant": false,
      "inputs": [
        {
          "name": "availabilityNumber",
          "type": "uint256"
        }
      ],
      "name": "cancelAvailability",
      "outputs": [
        {
          "name": "",
          "type": "uint8"
        }
      ],
      "payable": false,
      "stateMutability": "nonpayable",
      "type": "function"
    },
    {
      "constant": false,
      "inputs": [
        {
          "name": "availabilityNumber",
          "type": "uint256"
        },
        {
          "name": "_type",
          "type": "uint256"
        },
        {
          "name": "_minDeposit",
          "type": "uint256"
        },
        {
          "name": "_commission",
          "type": "uint256"
        },
        {
          "name": "_freeCancelDateTs",
          "type": "uint256"
        },
        {
          "name": "_startDateTs",
          "type": "uint256"
        },
        {
          "name": "_endDateTs",
          "type": "uint256"
        },
        {
          "name": "_bookingStatus",
          "type": "uint8"
        },
        {
          "name": "_metaDataLink",
          "type": "bytes32"
        }
      ],
      "name": "updateAvailability",
      "outputs": [
        {
          "name": "status",
          "type": "bool"
        }
      ],
      "payable": false,
      "stateMutability": "nonpayable",
      "type": "function"
    }
  ],
  "bytecode": "0x6060604052341561000f57600080fd5b6112c18061001e6000396000f3006060604052600436106100a4576000357c0100000000000000000000000000000000000000000000000000000000900463ffffffff168063053d7ff2146100a957806309d347621461011957806324867a37146101425780634866e0001461018757806361d7eb531461021257806371538b00146102fd5780639eeb392214610342578063aaa045fe14610387578063be8dce6e146103cc578063e103381d14610456575b600080fd5b34156100b457600080fd5b6100ca6004808035906020019091905050610628565b604051808781526020018681526020018581526020018481526020018360048111156100f257fe5b60ff1681526020018260001916600019168152602001965050505050505060405180910390f35b341561012457600080fd5b61012c6106e3565b6040518082815260200191505060405180910390f35b341561014d57600080fd5b61016360048080359060200190919050506106e9565b6040518082600481111561017357fe5b60ff16815260200191505060405180910390f35b341561019257600080fd5b6101ee600480803590602001909190803590602001909190803590602001909190803590602001909190803590602001909190803590602001909190803560ff16906020019091908035600019169060200190919050506107e4565b604051808260048111156101fe57fe5b60ff16815260200191505060405180910390f35b341561021d57600080fd5b61023360048080359060200190919050506109b8565b604051808c73ffffffffffffffffffffffffffffffffffffffff1673ffffffffffffffffffffffffffffffffffffffff1681526020018b73ffffffffffffffffffffffffffffffffffffffff1673ffffffffffffffffffffffffffffffffffffffff1681526020018a81526020018981526020018881526020018781526020018681526020018581526020018481526020018360048111156102d157fe5b60ff16815260200182600019166000191681526020019b50505050505050505050505060405180910390f35b341561030857600080fd5b61031e6004808035906020019091905050610a5f565b6040518082600481111561032e57fe5b60ff16815260200191505060405180910390f35b341561034d57600080fd5b6103636004808035906020019091905050610b2f565b6040518082600481111561037357fe5b60ff16815260200191505060405180910390f35b341561039257600080fd5b6103a86004808035906020019091905050610bff565b604051808260048111156103b857fe5b60ff16815260200191505060405180910390f35b34156103d757600080fd5b61043c600480803590602001909190803590602001909190803590602001909190803590602001909190803590602001909190803590602001909190803590602001909190803560ff1690602001909190803560001916906020019091905050610ccf565b604051808215151515815260200191505060405180910390f35b341561046157600080fd5b610469610e4e565b6040518080602001806020018060200180602001806020018060200187810387528d818151815260200191508051906020019060200280838360005b838110156104c05780820151818401526020810190506104a5565b5050505090500187810386528c818151815260200191508051906020019060200280838360005b838110156105025780820151818401526020810190506104e7565b5050505090500187810385528b818151815260200191508051906020019060200280838360005b83811015610544578082015181840152602081019050610529565b5050505090500187810384528a818151815260200191508051906020019060200280838360005b8381101561058657808201518184015260208101905061056b565b50505050905001878103835289818151815260200191508051906020019060200280838360005b838110156105c85780820151818401526020810190506105ad565b50505050905001878103825288818151815260200191508051906020019060200280838360005b8381101561060a5780820151818401526020810190506105ef565b505050509050019c5050505050505050505050505060405180910390f35b6000806000806000806000806000806000600160008d8152602001908152602001600020600401549450600160008d8152602001908152602001600020600501549350600160008d8152602001908152602001600020600601549250600160008d815260200190815260200160002060090160009054906101000a900460ff169150600160008d8152602001908152602001600020600a015490508b85858585859a509a509a509a509a509a50505050505091939550919395565b60005481565b60008060048111156106f757fe5b6001600084815260200190815260200160002060090160009054906101000a900460ff16600481111561072657fe5b14156107b957600180600084815260200190815260200160002060090160006101000a81548160ff0219169083600481111561075e57fe5b0217905550336001600084815260200190815260200160002060010160006101000a81548173ffffffffffffffffffffffffffffffffffffffff021916908373ffffffffffffffffffffffffffffffffffffffff1602179055505b6001600083815260200190815260200160002060090160009054906101000a900460ff169050919050565b6000610160604051908101604052803373ffffffffffffffffffffffffffffffffffffffff168152602001600073ffffffffffffffffffffffffffffffffffffffff16815260200160005481526020018a815260200189815260200188815260200187815260200186815260200185815260200184600481111561086457fe5b81526020018360001916815250600160008054815260200190815260200160002060008201518160000160006101000a81548173ffffffffffffffffffffffffffffffffffffffff021916908373ffffffffffffffffffffffffffffffffffffffff16021790555060208201518160010160006101000a81548173ffffffffffffffffffffffffffffffffffffffff021916908373ffffffffffffffffffffffffffffffffffffffff16021790555060408201518160020155606082015181600301556080820151816004015560a0820151816005015560c0820151816006015560e0820151816007015561010082015181600801556101208201518160090160006101000a81548160ff0219169083600481111561097f57fe5b021790555061014082015181600a0190600019169055905050600080815480929190600101919050555082905098975050505050505050565b60016020528060005260406000206000915090508060000160009054906101000a900473ffffffffffffffffffffffffffffffffffffffff16908060010160009054906101000a900473ffffffffffffffffffffffffffffffffffffffff16908060020154908060030154908060040154908060050154908060060154908060070154908060080154908060090160009054906101000a900460ff169080600a015490508b565b60003373ffffffffffffffffffffffffffffffffffffffff166001600084815260200190815260200160002060000160009054906101000a900473ffffffffffffffffffffffffffffffffffffffff1673ffffffffffffffffffffffffffffffffffffffff161415610b045760036001600084815260200190815260200160002060090160006101000a81548160ff02191690836004811115610afe57fe5b02179055505b6001600083815260200190815260200160002060090160009054906101000a900460ff169050919050565b60003373ffffffffffffffffffffffffffffffffffffffff166001600084815260200190815260200160002060000160009054906101000a900473ffffffffffffffffffffffffffffffffffffffff1673ffffffffffffffffffffffffffffffffffffffff161415610bd45760046001600084815260200190815260200160002060090160006101000a81548160ff02191690836004811115610bce57fe5b02179055505b6001600083815260200190815260200160002060090160009054906101000a900460ff169050919050565b60003373ffffffffffffffffffffffffffffffffffffffff166001600084815260200190815260200160002060000160009054906101000a900473ffffffffffffffffffffffffffffffffffffffff1673ffffffffffffffffffffffffffffffffffffffff161415610ca45760026001600084815260200190815260200160002060090160006101000a81548160ff02191690836004811115610c9e57fe5b02179055505b6001600083815260200190815260200160002060090160009054906101000a900460ff169050919050565b60003373ffffffffffffffffffffffffffffffffffffffff16600160008c815260200190815260200160002060000160009054906101000a900473ffffffffffffffffffffffffffffffffffffffff1673ffffffffffffffffffffffffffffffffffffffff161415610e3c5788600160008c81526020019081526020016000206003018190555087600160008c81526020019081526020016000206004018190555086600160008c81526020019081526020016000206005018190555085600160008c81526020019081526020016000206006018190555084600160008c81526020019081526020016000206007018190555083600160008c81526020019081526020016000206008018190555082600160008c815260200190815260200160002060090160006101000a81548160ff02191690836004811115610e0f57fe5b021790555081600160008c8152602001908152602001600020600a01816000191690555060019050610e41565b600090505b9998505050505050505050565b610e56611259565b610e5e61126d565b610e6661126d565b610e6e611259565b610e76611259565b610e7e611281565b610e86611259565b610e8e61126d565b610e9661126d565b610e9e611259565b610ea6611259565b610eae611259565b610eb6611259565b610ebe611281565b60008054604051805910610ecf5750595b90808252806020026020018201604052509850600054604051805910610ef25750595b90808252806020026020018201604052509750600054604051805910610f155750595b90808252806020026020018201604052509650600054604051805910610f385750595b90808252806020026020018201604052509550600054604051805910610f5b5750595b90808252806020026020018201604052509450600054604051805910610f7e5750595b90808252806020026020018201604052509350600054604051805910610fa15750595b90808252806020026020018201604052509250600054604051805910610fc45750595b90808252806020026020018201604052509150600090505b60005481101561123657808982815181101515610ff557fe5b90602001906020020181815250506001600082815260200190815260200160002060000160009054906101000a900473ffffffffffffffffffffffffffffffffffffffff16888281518110151561104857fe5b9060200190602002019073ffffffffffffffffffffffffffffffffffffffff16908173ffffffffffffffffffffffffffffffffffffffff16815250506001600082815260200190815260200160002060010160009054906101000a900473ffffffffffffffffffffffffffffffffffffffff1687828151811015156110c957fe5b9060200190602002019073ffffffffffffffffffffffffffffffffffffffff16908173ffffffffffffffffffffffffffffffffffffffff16815250506001600082815260200190815260200160002060020154868281518110151561112a57fe5b90602001906020020181815250506001600082815260200190815260200160002060030154858281518110151561115d57fe5b90602001906020020181815250506001600082815260200190815260200160002060070154848281518110151561119057fe5b9060200190602002018181525050600160008281526020019081526020016000206008015483828151811015156111c357fe5b90602001906020020181815250506001600082815260200190815260200160002060090160009054906101000a900460ff16828281518110151561120357fe5b90602001906020020190600481111561121857fe5b9081600481111561122557fe5b815250508080600101915050610fdc565b8888888888869e509e509e509e509e509e50505050505050505050909192939495565b602060405190810160405280600081525090565b602060405190810160405280600081525090565b6020604051908101604052806000815250905600a165627a7a72305820990b8a0a0729d2ba946f83b25d178e6278ee34fd68fe9fe0ecad6ec531635c5e0029",
  "source": "pragma solidity ^0.4.2;\n\n/* Availabilities implementation */\ncontract ResContract {\n\n    enum BookingStatus { AVAILABLE, REQUESTED, REJECTED, CONFIRMED, CANCELLED }\n    struct Availability {\n        address                 _provider;  // address of the provider\n        address                 _booker;    // address of the booker\n        uint                    _resourceId ;   // resource id OR bundle id\n        uint                    _type;   // Type of Availability\n        uint                    _minDeposit ; // minimum BTU deposit for booking this resource\n        uint                    _commission ; // commission amount paid to booker in BTU\n        uint                    _freeCancelDateTs; // Limit date for a reservation cancellation\n        uint                    _startDateTs;   //availability start date timestamps\n        uint                    _endDateTs;   //availability end date timestamps\n        BookingStatus           _bookingStatus ; // reservation status\n        bytes32                 _metaDataLink; //metadatas\n    }\n\n    uint public availabilityCount;\n    mapping (uint => Availability) public availabilities;\n\n    //Submit one availability\n    function publishAvailability (uint _type, uint _minDeposit, uint _commission,\n                                  uint _freeCancelDateTs, uint _startDateTs,\n                                  uint _endDateTs, BookingStatus _bookingStatus, bytes32 _metaDataLink)\n    public returns (BookingStatus status)\n    {\n        availabilities[availabilityCount] = Availability( msg.sender, 0x0, availabilityCount, _type, _minDeposit,\n                                                          _commission, _freeCancelDateTs, _startDateTs, _endDateTs,\n                                                          _bookingStatus, _metaDataLink);\n        availabilityCount++;\n        return _bookingStatus;\n    }\n\n    //An overview of all availabilities\n    function listAvailabilitiesOverview ()\n    public constant returns (uint[], address[], address[],\n                             uint[], uint[], BookingStatus[])\n    {\n        uint[] memory           keys = new uint[](availabilityCount);\n        address[] memory        providers = new address[](availabilityCount);\n        address[] memory        bookers = new address[](availabilityCount);\n        uint[] memory           resourceIds = new uint[](availabilityCount);\n        uint[] memory           types = new uint[](availabilityCount);\n        uint[] memory           startDateTs = new uint[](availabilityCount);\n        uint[] memory           endDateTs = new uint[](availabilityCount);\n        BookingStatus[] memory  bookingStatuses = new BookingStatus[](availabilityCount);\n\n        for (uint i = 0 ; i < availabilityCount ; i++) {\n            keys[i] = i;\n            providers[i] = availabilities[i]._provider;\n            bookers[i] = availabilities[i]._booker;\n            resourceIds[i] = availabilities[i]._resourceId;\n            types[i] = availabilities[i]._type;\n            startDateTs[i] = availabilities[i]._startDateTs;\n            endDateTs[i] = availabilities[i]._endDateTs;\n            bookingStatuses[i] = availabilities[i]._bookingStatus;\n        }\n        return (keys, providers, bookers,\n                resourceIds, types, bookingStatuses);\n    }\n\n    //All details from one availability\n    function listAvailabilityDetails (uint availabilityNumber)\n    public constant returns (uint, uint, uint,\n                             uint, BookingStatus, bytes32)\n    {\n        uint                    minDeposit;\n        uint                    commission;\n        uint                    freeCancelDateTs;\n        BookingStatus           bookingStatus;\n        bytes32                 metaDataLink;\n\n        minDeposit = availabilities[availabilityNumber]._minDeposit;\n        commission = availabilities[availabilityNumber]._commission;\n        freeCancelDateTs = availabilities[availabilityNumber]._freeCancelDateTs;\n        bookingStatus = availabilities[availabilityNumber]._bookingStatus;\n        metaDataLink = availabilities[availabilityNumber]._metaDataLink;\n        return (availabilityNumber, minDeposit, commission,\n                freeCancelDateTs, bookingStatus, metaDataLink);\n    }\n\n    //Request reservation\n    /* TO-ADD\n     * BTU Logic :\n     * BTU escrows deposit amount\n     */\n    function requestAvailability (uint availabilityNumber)\n    public returns (BookingStatus)\n    {\n        if (availabilities[availabilityNumber]._bookingStatus == BookingStatus.AVAILABLE) {\n            availabilities[availabilityNumber]._bookingStatus = BookingStatus.REQUESTED;\n            availabilities[availabilityNumber]._booker = msg.sender;\n        }\n        return (availabilities[availabilityNumber]._bookingStatus);\n    }\n\n    //reject reservation\n    /* TO-ADD\n     * BTU Logic :\n     * BTU gives deposit amount back to booker\n     */\n    function rejectAvailability (uint availabilityNumber)\n    public returns (BookingStatus)\n    {\n        if (availabilities[availabilityNumber]._provider == msg.sender) {\n            availabilities[availabilityNumber]._bookingStatus = BookingStatus.REJECTED;\n        }\n        return (availabilities[availabilityNumber]._bookingStatus);\n    }\n\n    //confirm reservation\n    /* TO-ADD\n     * BTU Logic :\n     * BTU escrows deposit amount\n     */\n    function confirmAvailability (uint availabilityNumber)\n    public returns (BookingStatus)\n    {\n        if (availabilities[availabilityNumber]._provider == msg.sender) {\n            availabilities[availabilityNumber]._bookingStatus = BookingStatus.CONFIRMED;\n        }\n        return (availabilities[availabilityNumber]._bookingStatus);\n    }\n\n    //cancel reservation\n    /* TO-ADD\n     * BTU Logic :\n     * IF BEFORE CANCEL DATE : BTU gives back deposit amount to booker\n     * IF AFTER CANCEL DATE : BTU gives back deposit amount to provider\n     */\n    function cancelAvailability (uint availabilityNumber)\n    public returns (BookingStatus)\n    {\n        if (availabilities[availabilityNumber]._provider == msg.sender) {\n            availabilities[availabilityNumber]._bookingStatus = BookingStatus.CANCELLED;\n        }\n        return (availabilities[availabilityNumber]._bookingStatus);\n    }\n\n    //Update reservation\n    function updateAvailability (uint availabilityNumber, uint _type, uint _minDeposit, uint _commission,\n                                 uint _freeCancelDateTs, uint _startDateTs,\n                                 uint _endDateTs, BookingStatus _bookingStatus, bytes32 _metaDataLink)\n    public returns (bool status)\n    {\n        if (availabilities[availabilityNumber]._provider == msg.sender) {\n            availabilities[availabilityNumber]._type = _type;\n            availabilities[availabilityNumber]._minDeposit = _minDeposit;\n            availabilities[availabilityNumber]._commission = _commission;\n            availabilities[availabilityNumber]._freeCancelDateTs = _freeCancelDateTs;\n            availabilities[availabilityNumber]._startDateTs = _startDateTs;\n            availabilities[availabilityNumber]._endDateTs = _endDateTs;\n            availabilities[availabilityNumber]._bookingStatus = _bookingStatus;\n            availabilities[availabilityNumber]._metaDataLink = _metaDataLink;\n            return true;\n        }\n        return false;\n    }\n}\n",
  "sourcePath": "/Users/kumatetsu/projet-etna/MCCP2/election/contracts/ResContract.sol",
  "compiler": {
    "name": "solc",
    "version": "0.4.19+commit.c4cbbb05.Emscripten.clang"
  },
  "schemaVersion": "1.0.1",
  "updatedAt": "2018-02-22T13:35:51.527Z"
}