{
  "contractName": "ResContract",
  "abi": [
    {
      "constant": true,
      "inputs": [],
      "name": "availabilityCount",
      "outputs": [
        {
          "name": "",
          "type": "uint256"
        }
      ],
      "payable": false,
      "stateMutability": "view",
      "type": "function"
    },
    {
      "constant": true,
      "inputs": [
        {
          "name": "",
          "type": "uint256"
        }
      ],
      "name": "availabilities",
      "outputs": [
        {
          "name": "_provider",
          "type": "address"
        },
        {
          "name": "_booker",
          "type": "address"
        },
        {
          "name": "_resourceId",
          "type": "uint256"
        },
        {
          "name": "_type",
          "type": "uint256"
        },
        {
          "name": "_minDeposit",
          "type": "uint256"
        },
        {
          "name": "_commission",
          "type": "uint256"
        },
        {
          "name": "_freeCancelDateTs",
          "type": "uint256"
        },
        {
          "name": "_startDateTs",
          "type": "uint256"
        },
        {
          "name": "_endDateTs",
          "type": "uint256"
        },
        {
          "name": "_bookingStatus",
          "type": "uint8"
        }
      ],
      "payable": false,
      "stateMutability": "view",
      "type": "function"
    },
    {
      "constant": false,
      "inputs": [
        {
          "name": "_type",
          "type": "uint256"
        },
        {
          "name": "_minDeposit",
          "type": "uint256"
        },
        {
          "name": "_commission",
          "type": "uint256"
        },
        {
          "name": "_freeCancelDateTs",
          "type": "uint256"
        },
        {
          "name": "_startDateTs",
          "type": "uint256"
        },
        {
          "name": "_endDateTs",
          "type": "uint256"
        },
        {
          "name": "_bookingStatus",
          "type": "uint8"
        }
      ],
      "name": "publishAvailability",
      "outputs": [
        {
          "name": "status",
          "type": "uint8"
        }
      ],
      "payable": false,
      "stateMutability": "nonpayable",
      "type": "function"
    },
    {
      "constant": true,
      "inputs": [],
      "name": "listAvailabilitiesOverview",
      "outputs": [
        {
          "name": "",
          "type": "uint256[]"
        },
        {
          "name": "",
          "type": "address[]"
        },
        {
          "name": "",
          "type": "address[]"
        },
        {
          "name": "",
          "type": "uint256[]"
        },
        {
          "name": "",
          "type": "uint256[]"
        },
        {
          "name": "",
          "type": "uint8[]"
        }
      ],
      "payable": false,
      "stateMutability": "view",
      "type": "function"
    },
    {
      "constant": true,
      "inputs": [
        {
          "name": "availabilityNumber",
          "type": "uint256"
        }
      ],
      "name": "listAvailabilityDetails",
      "outputs": [
        {
          "name": "",
          "type": "uint256"
        },
        {
          "name": "",
          "type": "uint256"
        },
        {
          "name": "",
          "type": "uint256"
        },
        {
          "name": "",
          "type": "uint256"
        },
        {
          "name": "",
          "type": "uint8"
        }
      ],
      "payable": false,
      "stateMutability": "view",
      "type": "function"
    },
    {
      "constant": false,
      "inputs": [
        {
          "name": "availabilityNumber",
          "type": "uint256"
        }
      ],
      "name": "requestReservation",
      "outputs": [
        {
          "name": "",
          "type": "uint8"
        }
      ],
      "payable": false,
      "stateMutability": "nonpayable",
      "type": "function"
    }
  ],
  "bytecode": "0x6060604052341561000f57600080fd5b610c498061001e6000396000f300606060405260043610610078576000357c0100000000000000000000000000000000000000000000000000000000900463ffffffff168063053d7ff21461007d57806309d34762146100de57806361d7eb5314610107578063e103381d146101e3578063e99bd608146103b5578063eab835da14610433575b600080fd5b341561008857600080fd5b61009e6004808035906020019091905050610478565b604051808681526020018581526020018481526020018381526020018260038111156100c657fe5b60ff1681526020019550505050505060405180910390f35b34156100e957600080fd5b6100f1610513565b6040518082815260200191505060405180910390f35b341561011257600080fd5b6101286004808035906020019091905050610519565b604051808b73ffffffffffffffffffffffffffffffffffffffff1673ffffffffffffffffffffffffffffffffffffffff1681526020018a73ffffffffffffffffffffffffffffffffffffffff1673ffffffffffffffffffffffffffffffffffffffff1681526020018981526020018881526020018781526020018681526020018581526020018481526020018381526020018260038111156101c657fe5b60ff1681526020019a505050505050505050505060405180910390f35b34156101ee57600080fd5b6101f66105ba565b6040518080602001806020018060200180602001806020018060200187810387528d818151815260200191508051906020019060200280838360005b8381101561024d578082015181840152602081019050610232565b5050505090500187810386528c818151815260200191508051906020019060200280838360005b8381101561028f578082015181840152602081019050610274565b5050505090500187810385528b818151815260200191508051906020019060200280838360005b838110156102d15780820151818401526020810190506102b6565b5050505090500187810384528a818151815260200191508051906020019060200280838360005b838110156103135780820151818401526020810190506102f8565b50505050905001878103835289818151815260200191508051906020019060200280838360005b8381101561035557808201518184015260208101905061033a565b50505050905001878103825288818151815260200191508051906020019060200280838360005b8381101561039757808201518184015260208101905061037c565b505050509050019c5050505050505050505050505060405180910390f35b34156103c057600080fd5b61040f600480803590602001909190803590602001909190803590602001909190803590602001909190803590602001909190803590602001909190803560ff169060200190919050506109c5565b6040518082600381111561041f57fe5b60ff16815260200191505060405180910390f35b341561043e57600080fd5b6104546004808035906020019091905050610b7d565b6040518082600381111561046457fe5b60ff16815260200191505060405180910390f35b6000806000806000806000806000600160008b8152602001908152602001600020600401549350600160008b8152602001908152602001600020600501549250600160008b8152602001908152602001600020600601549150600160008b815260200190815260200160002060090160009054906101000a900460ff1690508984848484985098509850985098505050505091939590929450565b60005481565b60016020528060005260406000206000915090508060000160009054906101000a900473ffffffffffffffffffffffffffffffffffffffff16908060010160009054906101000a900473ffffffffffffffffffffffffffffffffffffffff16908060020154908060030154908060040154908060050154908060060154908060070154908060080154908060090160009054906101000a900460ff1690508a565b6105c2610be1565b6105ca610bf5565b6105d2610bf5565b6105da610be1565b6105e2610be1565b6105ea610c09565b6105f2610be1565b6105fa610bf5565b610602610bf5565b61060a610be1565b610612610be1565b61061a610be1565b610622610be1565b61062a610c09565b6000805460405180591061063b5750595b9080825280602002602001820160405250985060005460405180591061065e5750595b908082528060200260200182016040525097506000546040518059106106815750595b908082528060200260200182016040525096506000546040518059106106a45750595b908082528060200260200182016040525095506000546040518059106106c75750595b908082528060200260200182016040525094506000546040518059106106ea5750595b9080825280602002602001820160405250935060005460405180591061070d5750595b908082528060200260200182016040525092506000546040518059106107305750595b90808252806020026020018201604052509150600090505b6000548110156109a25780898281518110151561076157fe5b90602001906020020181815250506001600082815260200190815260200160002060000160009054906101000a900473ffffffffffffffffffffffffffffffffffffffff1688828151811015156107b457fe5b9060200190602002019073ffffffffffffffffffffffffffffffffffffffff16908173ffffffffffffffffffffffffffffffffffffffff16815250506001600082815260200190815260200160002060010160009054906101000a900473ffffffffffffffffffffffffffffffffffffffff16878281518110151561083557fe5b9060200190602002019073ffffffffffffffffffffffffffffffffffffffff16908173ffffffffffffffffffffffffffffffffffffffff16815250506001600082815260200190815260200160002060020154868281518110151561089657fe5b9060200190602002018181525050600160008281526020019081526020016000206003015485828151811015156108c957fe5b9060200190602002018181525050600160008281526020019081526020016000206007015484828151811015156108fc57fe5b90602001906020020181815250506001600082815260200190815260200160002060080154838281518110151561092f57fe5b90602001906020020181815250506001600082815260200190815260200160002060090160009054906101000a900460ff16828281518110151561096f57fe5b90602001906020020190600381111561098457fe5b9081600381111561099157fe5b815250508080600101915050610748565b8888888888869e509e509e509e509e509e50505050505050505050909192939495565b6000610140604051908101604052803373ffffffffffffffffffffffffffffffffffffffff168152602001600073ffffffffffffffffffffffffffffffffffffffff1681526020016000548152602001898152602001888152602001878152602001868152602001858152602001848152602001836003811115610a4557fe5b815250600160008054815260200190815260200160002060008201518160000160006101000a81548173ffffffffffffffffffffffffffffffffffffffff021916908373ffffffffffffffffffffffffffffffffffffffff16021790555060208201518160010160006101000a81548173ffffffffffffffffffffffffffffffffffffffff021916908373ffffffffffffffffffffffffffffffffffffffff16021790555060408201518160020155606082015181600301556080820151816004015560a0820151816005015560c0820151816006015560e0820151816007015561010082015181600801556101208201518160090160006101000a81548160ff02191690836003811115610b5657fe5b02179055509050506000808154809291906001019190505550819050979650505050505050565b6000806001600084815260200190815260200160002060090160006101000a81548160ff02191690836003811115610bb157fe5b02179055506001600083815260200190815260200160002060090160009054906101000a900460ff169050919050565b602060405190810160405280600081525090565b602060405190810160405280600081525090565b6020604051908101604052806000815250905600a165627a7a7230582048642d4578ccb735a3535af29fe6cd56ef4cab98ae5a2738199b9de325f0bc030029",
  "source": "pragma solidity ^0.4.2;\n\n/* Availabilities implementation */\ncontract ResContract {\n    \n    enum BookingStatus { REQUESTED, REJECTED, CONFIRMED, CANCELLED  }\n    struct Availability {\n        address                 _provider;  // address of the provider\n        address                 _booker;    // address of the booker\n\t    uint                    _resourceId ;   // resource id OR bundle id\n\t        uint                    _type;   // Type of Availability\n\t\t    uint                    _minDeposit ; // minimum BTU deposit for booking this resource\n\t\t        uint                    _commission ; // commission amount paid to booker in BTU\n        uint                    _freeCancelDateTs; // Limit date for a reservation cancellation\n        uint                    _startDateTs;   //availability start date timestamps\n        uint                    _endDateTs;   //availability end date timestamps\n\t    BookingStatus           _bookingStatus ; // reservation status\n    }\n\n    uint public availabilityCount;\n    mapping (uint => Availability) public availabilities;\n\n    //Submit one or multiple availability - production implementation should be off-chain\n    function publishAvailability ( uint _type, uint _minDeposit,\n                                   uint _commission, uint _freeCancelDateTs, uint _startDateTs, uint _endDateTs,\n                                   BookingStatus _bookingStatus)\n    public returns (BookingStatus status) \n    {\n        availabilities[availabilityCount] = Availability( msg.sender, 0x0, availabilityCount, _type, _minDeposit,\n                                                          _commission, _freeCancelDateTs, _startDateTs, _endDateTs,\n                                                          _bookingStatus);\n        availabilityCount++;\n        return _bookingStatus;\n    }\n\n    //An overview of all availabilities\n    function listAvailabilitiesOverview ()\n    public constant returns (uint[], address[], address[], \n                             uint[], uint[], BookingStatus[])\n    {\n        uint[] memory              keys = new uint[](availabilityCount);\n        address[] memory           providers = new address[](availabilityCount);\n        address[] memory           bookers = new address[](availabilityCount);\n\t    uint[] memory              resourceIds = new uint[](availabilityCount);\n\t        uint[] memory              types = new uint[](availabilityCount);\n        uint[] memory              startDateTs = new uint[](availabilityCount);\n        uint[] memory              endDateTs = new uint[](availabilityCount);\n        BookingStatus[] memory     bookingStatuses = new BookingStatus[](availabilityCount);\n\n        for (uint i = 0 ; i < availabilityCount ; i++) {\n            keys[i] = i;\n            providers[i] = availabilities[i]._provider;\n            bookers[i] = availabilities[i]._booker;\n            resourceIds[i] = availabilities[i]._resourceId;\n            types[i] = availabilities[i]._type;\n            startDateTs[i] = availabilities[i]._startDateTs;\n            endDateTs[i] = availabilities[i]._endDateTs;\n            bookingStatuses[i] = availabilities[i]._bookingStatus;\n        }\n        return (keys, providers, bookers,\n                resourceIds, types, bookingStatuses);\n    }\n\n    //All details from one availability\n    function listAvailabilityDetails (uint availabilityNumber)\n    public constant returns (uint, uint, uint,\n                             uint, BookingStatus)\n    {\n        uint             minDeposit;\n\t    uint             commission;\n        uint             freeCancelDateTs;\n        BookingStatus    bookingStatus;\n\n        minDeposit = availabilities[availabilityNumber]._minDeposit;\n        commission = availabilities[availabilityNumber]._commission;\n        freeCancelDateTs = availabilities[availabilityNumber]._freeCancelDateTs;\n        bookingStatus = availabilities[availabilityNumber]._bookingStatus;\n        return (availabilityNumber, minDeposit, commission, freeCancelDateTs, bookingStatus);\n    }\n\n    //Request reservation\n    function requestReservation (uint availabilityNumber)\n    public returns (BookingStatus)\n    {\n        availabilities[availabilityNumber]._bookingStatus = BookingStatus.REQUESTED;\n        return (availabilities[availabilityNumber]._bookingStatus);\n    }\n}",
  "sourcePath": "/Users/kumatetsu/projet-etna/MCCP2/election/contracts/ResContract.sol",
  "compiler": {
    "name": "solc",
    "version": "0.4.19+commit.c4cbbb05.Emscripten.clang"
  },
  "schemaVersion": "1.0.1",
  "updatedAt": "2018-02-22T08:31:34.453Z"
}